{
  "contractName": "MedicalRecords",
  "abi": [
    {
      "anonymous": false,
      "inputs": [
        {
          "indexed": true,
          "internalType": "address",
          "name": "patient",
          "type": "address"
        },
        {
          "indexed": true,
          "internalType": "address",
          "name": "doctor",
          "type": "address"
        }
      ],
      "name": "AccessApproved",
      "type": "event"
    },
    {
      "anonymous": false,
      "inputs": [
        {
          "indexed": true,
          "internalType": "address",
          "name": "patient",
          "type": "address"
        },
        {
          "indexed": true,
          "internalType": "address",
          "name": "doctor",
          "type": "address"
        }
      ],
      "name": "AccessRejected",
      "type": "event"
    },
    {
      "anonymous": false,
      "inputs": [
        {
          "indexed": true,
          "internalType": "address",
          "name": "doctor",
          "type": "address"
        },
        {
          "indexed": true,
          "internalType": "address",
          "name": "patient",
          "type": "address"
        }
      ],
      "name": "AccessRequested",
      "type": "event"
    },
    {
      "anonymous": false,
      "inputs": [
        {
          "indexed": true,
          "internalType": "address",
          "name": "patient",
          "type": "address"
        },
        {
          "indexed": true,
          "internalType": "address",
          "name": "doctor",
          "type": "address"
        }
      ],
      "name": "AccessRevoked",
      "type": "event"
    },
    {
      "anonymous": false,
      "inputs": [
        {
          "indexed": true,
          "internalType": "address",
          "name": "patient",
          "type": "address"
        },
        {
          "indexed": false,
          "internalType": "string",
          "name": "fileHash",
          "type": "string"
        },
        {
          "indexed": false,
          "internalType": "uint256",
          "name": "timestamp",
          "type": "uint256"
        }
      ],
      "name": "FileUploaded",
      "type": "event"
    },
    {
      "inputs": [
        {
          "internalType": "address",
          "name": "",
          "type": "address"
        },
        {
          "internalType": "address",
          "name": "",
          "type": "address"
        }
      ],
      "name": "accessRequests",
      "outputs": [
        {
          "internalType": "address",
          "name": "doctor",
          "type": "address"
        },
        {
          "internalType": "bool",
          "name": "approved",
          "type": "bool"
        },
        {
          "internalType": "bool",
          "name": "exists",
          "type": "bool"
        }
      ],
      "stateMutability": "view",
      "type": "function",
      "constant": true
    },
    {
      "inputs": [
        {
          "internalType": "string",
          "name": "_fileHash",
          "type": "string"
        }
      ],
      "name": "uploadFile",
      "outputs": [],
      "stateMutability": "nonpayable",
      "type": "function"
    },
    {
      "inputs": [
        {
          "internalType": "address",
          "name": "_patient",
          "type": "address"
        }
      ],
      "name": "requestAccess",
      "outputs": [],
      "stateMutability": "nonpayable",
      "type": "function"
    },
    {
      "inputs": [
        {
          "internalType": "address",
          "name": "_doctor",
          "type": "address"
        }
      ],
      "name": "approveAccess",
      "outputs": [],
      "stateMutability": "nonpayable",
      "type": "function"
    },
    {
      "inputs": [
        {
          "internalType": "address",
          "name": "_doctor",
          "type": "address"
        }
      ],
      "name": "rejectAccess",
      "outputs": [],
      "stateMutability": "nonpayable",
      "type": "function"
    },
    {
      "inputs": [
        {
          "internalType": "address",
          "name": "_doctor",
          "type": "address"
        }
      ],
      "name": "revokeAccess",
      "outputs": [],
      "stateMutability": "nonpayable",
      "type": "function"
    },
    {
      "inputs": [
        {
          "internalType": "address",
          "name": "_patient",
          "type": "address"
        }
      ],
      "name": "getFiles",
      "outputs": [
        {
          "components": [
            {
              "internalType": "string",
              "name": "fileHash",
              "type": "string"
            },
            {
              "internalType": "uint256",
              "name": "timestamp",
              "type": "uint256"
            }
          ],
          "internalType": "struct MedicalRecords.File[]",
          "name": "",
          "type": "tuple[]"
        }
      ],
      "stateMutability": "view",
      "type": "function",
      "constant": true
    },
    {
      "inputs": [],
      "name": "getApprovedDoctors",
      "outputs": [
        {
          "internalType": "address[]",
          "name": "",
          "type": "address[]"
        }
      ],
      "stateMutability": "view",
      "type": "function",
      "constant": true
    },
    {
      "inputs": [
        {
          "internalType": "address",
          "name": "_doctor",
          "type": "address"
        }
      ],
      "name": "checkAccessRequest",
      "outputs": [
        {
          "internalType": "bool",
          "name": "",
          "type": "bool"
        }
      ],
      "stateMutability": "view",
      "type": "function",
      "constant": true
    }
  ],
  "bytecode": "0x608060405234801561001057600080fd5b50611d5d806100206000396000f3fe608060405234801561001057600080fd5b50600436106100935760003560e01c806385e685311161006657806385e685311461011c578063ab4f232914610138578063ab617d411461016a578063e37ffc301461019a578063eb056845146101b657610093565b8063022cb271146100985780633141172c146100b4578063433bf37b146100d0578063705211f414610100575b600080fd5b6100b260048036038101906100ad9190611195565b6101d4565b005b6100ce60048036038101906100c99190611195565b6104a9565b005b6100ea60048036038101906100e59190611195565b61076d565b6040516100f7919061136a565b60405180910390f35b61011a60048036038101906101159190611195565b610972565b005b61013660048036038101906101319190611195565b610c9f565b005b610152600480360381019061014d919061138c565b610e60565b604051610161939291906113f6565b60405180910390f35b610184600480360381019061017f9190611195565b610ed1565b604051610191919061142d565b60405180910390f35b6101b460048036038101906101af919061157d565b610f67565b005b6101be611058565b6040516101cb9190611684565b60405180910390f35b3373ffffffffffffffffffffffffffffffffffffffff168173ffffffffffffffffffffffffffffffffffffffff1603610242576040517f08c379a000000000000000000000000000000000000000000000000000000000815260040161023990611729565b60405180910390fd5b600160008273ffffffffffffffffffffffffffffffffffffffff1673ffffffffffffffffffffffffffffffffffffffff16815260200190815260200160002060003373ffffffffffffffffffffffffffffffffffffffff1673ffffffffffffffffffffffffffffffffffffffff16815260200190815260200160002060000160159054906101000a900460ff161561030f576040517f08c379a000000000000000000000000000000000000000000000000000000000815260040161030690611795565b60405180910390fd5b60405180606001604052803373ffffffffffffffffffffffffffffffffffffffff16815260200160001515815260200160011515815250600160008373ffffffffffffffffffffffffffffffffffffffff1673ffffffffffffffffffffffffffffffffffffffff16815260200190815260200160002060003373ffffffffffffffffffffffffffffffffffffffff1673ffffffffffffffffffffffffffffffffffffffff16815260200190815260200160002060008201518160000160006101000a81548173ffffffffffffffffffffffffffffffffffffffff021916908373ffffffffffffffffffffffffffffffffffffffff16021790555060208201518160000160146101000a81548160ff02191690831515021790555060408201518160000160156101000a81548160ff0219169083151502179055509050508073ffffffffffffffffffffffffffffffffffffffff163373ffffffffffffffffffffffffffffffffffffffff167f40c7749b16fdfb0d550f20273a7767875059d647af94f5a9610c63ad73dcc79f60405160405180910390a350565b600160003373ffffffffffffffffffffffffffffffffffffffff1673ffffffffffffffffffffffffffffffffffffffff16815260200190815260200160002060008273ffffffffffffffffffffffffffffffffffffffff1673ffffffffffffffffffffffffffffffffffffffff16815260200190815260200160002060000160159054906101000a900460ff16610575576040517f08c379a000000000000000000000000000000000000000000000000000000000815260040161056c90611801565b60405180910390fd5b600160003373ffffffffffffffffffffffffffffffffffffffff1673ffffffffffffffffffffffffffffffffffffffff16815260200190815260200160002060008273ffffffffffffffffffffffffffffffffffffffff1673ffffffffffffffffffffffffffffffffffffffff16815260200190815260200160002060000160149054906101000a900460ff1615610642576040517f08c379a00000000000000000000000000000000000000000000000000000000081526004016106399061186d565b60405180910390fd5b600160003373ffffffffffffffffffffffffffffffffffffffff1673ffffffffffffffffffffffffffffffffffffffff16815260200190815260200160002060008273ffffffffffffffffffffffffffffffffffffffff1673ffffffffffffffffffffffffffffffffffffffff168152602001908152602001600020600080820160006101000a81549073ffffffffffffffffffffffffffffffffffffffff02191690556000820160146101000a81549060ff02191690556000820160156101000a81549060ff021916905550508073ffffffffffffffffffffffffffffffffffffffff163373ffffffffffffffffffffffffffffffffffffffff167f6586985f73a63d005b52bd5a5791732c40ec70b8fc067ab89f5c402185f0c6ea60405160405180910390a350565b6060600160008373ffffffffffffffffffffffffffffffffffffffff1673ffffffffffffffffffffffffffffffffffffffff16815260200190815260200160002060003373ffffffffffffffffffffffffffffffffffffffff1673ffffffffffffffffffffffffffffffffffffffff16815260200190815260200160002060000160149054906101000a900460ff1661083b576040517f08c379a0000000000000000000000000000000000000000000000000000000008152600401610832906118d9565b60405180910390fd5b6000808373ffffffffffffffffffffffffffffffffffffffff1673ffffffffffffffffffffffffffffffffffffffff168152602001908152602001600020805480602002602001604051908101604052809291908181526020016000905b8282101561096757838290600052602060002090600202016040518060400160405290816000820180546108cc90611928565b80601f01602080910402602001604051908101604052809291908181526020018280546108f890611928565b80156109455780601f1061091a57610100808354040283529160200191610945565b820191906000526020600020905b81548152906001019060200180831161092857829003601f168201915b5050505050815260200160018201548152505081526020019060010190610899565b505050509050919050565b600160003373ffffffffffffffffffffffffffffffffffffffff1673ffffffffffffffffffffffffffffffffffffffff16815260200190815260200160002060008273ffffffffffffffffffffffffffffffffffffffff1673ffffffffffffffffffffffffffffffffffffffff16815260200190815260200160002060000160159054906101000a900460ff16610a3e576040517f08c379a0000000000000000000000000000000000000000000000000000000008152600401610a3590611801565b60405180910390fd5b600160003373ffffffffffffffffffffffffffffffffffffffff1673ffffffffffffffffffffffffffffffffffffffff16815260200190815260200160002060008273ffffffffffffffffffffffffffffffffffffffff1673ffffffffffffffffffffffffffffffffffffffff16815260200190815260200160002060000160149054906101000a900460ff1615610b0b576040517f08c379a0000000000000000000000000000000000000000000000000000000008152600401610b02906119a5565b60405180910390fd5b60018060003373ffffffffffffffffffffffffffffffffffffffff1673ffffffffffffffffffffffffffffffffffffffff16815260200190815260200160002060008373ffffffffffffffffffffffffffffffffffffffff1673ffffffffffffffffffffffffffffffffffffffff16815260200190815260200160002060000160146101000a81548160ff021916908315150217905550600260003373ffffffffffffffffffffffffffffffffffffffff1673ffffffffffffffffffffffffffffffffffffffff168152602001908152602001600020819080600181540180825580915050600190039060005260206000200160009091909190916101000a81548173ffffffffffffffffffffffffffffffffffffffff021916908373ffffffffffffffffffffffffffffffffffffffff1602179055508073ffffffffffffffffffffffffffffffffffffffff163373ffffffffffffffffffffffffffffffffffffffff167fe6334627d2d1b816244f24397d90a02beea6f06a64333958f2fca9a73f84266d60405160405180910390a350565b600160003373ffffffffffffffffffffffffffffffffffffffff1673ffffffffffffffffffffffffffffffffffffffff16815260200190815260200160002060008273ffffffffffffffffffffffffffffffffffffffff1673ffffffffffffffffffffffffffffffffffffffff16815260200190815260200160002060000160149054906101000a900460ff16610d6b576040517f08c379a0000000000000000000000000000000000000000000000000000000008152600401610d6290611a11565b60405180910390fd5b6000600160003373ffffffffffffffffffffffffffffffffffffffff1673ffffffffffffffffffffffffffffffffffffffff16815260200190815260200160002060008373ffffffffffffffffffffffffffffffffffffffff1673ffffffffffffffffffffffffffffffffffffffff16815260200190815260200160002060000160146101000a81548160ff0219169083151502179055508073ffffffffffffffffffffffffffffffffffffffff163373ffffffffffffffffffffffffffffffffffffffff167f825c8be24eb0df19500f63e86c29e7d0d951e73056b889b891d85e40938d9b6e60405160405180910390a350565b6001602052816000526040600020602052806000526040600020600091509150508060000160009054906101000a900473ffffffffffffffffffffffffffffffffffffffff16908060000160149054906101000a900460ff16908060000160159054906101000a900460ff16905083565b6000600160003373ffffffffffffffffffffffffffffffffffffffff1673ffffffffffffffffffffffffffffffffffffffff16815260200190815260200160002060008373ffffffffffffffffffffffffffffffffffffffff1673ffffffffffffffffffffffffffffffffffffffff16815260200190815260200160002060000160159054906101000a900460ff169050919050565b6000803373ffffffffffffffffffffffffffffffffffffffff1673ffffffffffffffffffffffffffffffffffffffff16815260200190815260200160002060405180604001604052808381526020014281525090806001815401808255809150506001900390600052602060002090600202016000909190919091506000820151816000019081610ff89190611bdd565b506020820151816001015550503373ffffffffffffffffffffffffffffffffffffffff167f2256cc6482ddef3e8146b3b654095ac2e0d51bc048a5685c6d950c959ee5acb5824260405161104d929190611cf7565b60405180910390a250565b6060600260003373ffffffffffffffffffffffffffffffffffffffff1673ffffffffffffffffffffffffffffffffffffffff16815260200190815260200160002080548060200260200160405190810160405280929190818152602001828054801561111957602002820191906000526020600020905b8160009054906101000a900473ffffffffffffffffffffffffffffffffffffffff1673ffffffffffffffffffffffffffffffffffffffff16815260200190600101908083116110cf575b5050505050905090565b6000604051905090565b600080fd5b600080fd5b600073ffffffffffffffffffffffffffffffffffffffff82169050919050565b600061116282611137565b9050919050565b61117281611157565b811461117d57600080fd5b50565b60008135905061118f81611169565b92915050565b6000602082840312156111ab576111aa61112d565b5b60006111b984828501611180565b91505092915050565b600081519050919050565b600082825260208201905092915050565b6000819050602082019050919050565b600081519050919050565b600082825260208201905092915050565b60005b8381101561122857808201518184015260208101905061120d565b60008484015250505050565b6000601f19601f8301169050919050565b6000611250826111ee565b61125a81856111f9565b935061126a81856020860161120a565b61127381611234565b840191505092915050565b6000819050919050565b6112918161127e565b82525050565b600060408301600083015184820360008601526112b48282611245565b91505060208301516112c96020860182611288565b508091505092915050565b60006112e08383611297565b905092915050565b6000602082019050919050565b6000611300826111c2565b61130a81856111cd565b93508360208202850161131c856111de565b8060005b85811015611358578484038952815161133985826112d4565b9450611344836112e8565b925060208a01995050600181019050611320565b50829750879550505050505092915050565b6000602082019050818103600083015261138481846112f5565b905092915050565b600080604083850312156113a3576113a261112d565b5b60006113b185828601611180565b92505060206113c285828601611180565b9150509250929050565b6113d581611157565b82525050565b60008115159050919050565b6113f0816113db565b82525050565b600060608201905061140b60008301866113cc565b61141860208301856113e7565b61142560408301846113e7565b949350505050565b600060208201905061144260008301846113e7565b92915050565b600080fd5b600080fd5b7f4e487b7100000000000000000000000000000000000000000000000000000000600052604160045260246000fd5b61148a82611234565b810181811067ffffffffffffffff821117156114a9576114a8611452565b5b80604052505050565b60006114bc611123565b90506114c88282611481565b919050565b600067ffffffffffffffff8211156114e8576114e7611452565b5b6114f182611234565b9050602081019050919050565b82818337600083830152505050565b600061152061151b846114cd565b6114b2565b90508281526020810184848401111561153c5761153b61144d565b5b6115478482856114fe565b509392505050565b600082601f83011261156457611563611448565b5b813561157484826020860161150d565b91505092915050565b6000602082840312156115935761159261112d565b5b600082013567ffffffffffffffff8111156115b1576115b0611132565b5b6115bd8482850161154f565b91505092915050565b600081519050919050565b600082825260208201905092915050565b6000819050602082019050919050565b6115fb81611157565b82525050565b600061160d83836115f2565b60208301905092915050565b6000602082019050919050565b6000611631826115c6565b61163b81856115d1565b9350611646836115e2565b8060005b8381101561167757815161165e8882611601565b975061166983611619565b92505060018101905061164a565b5085935050505092915050565b6000602082019050818103600083015261169e8184611626565b905092915050565b600082825260208201905092915050565b7f596f752063616e6e6f7420726571756573742061636365737320746f20796f7560008201527f72206f776e207265636f72647300000000000000000000000000000000000000602082015250565b6000611713602d836116a6565b915061171e826116b7565b604082019050919050565b6000602082019050818103600083015261174281611706565b9050919050565b7f5265717565737420616c72656164792065786973747300000000000000000000600082015250565b600061177f6016836116a6565b915061178a82611749565b602082019050919050565b600060208201905081810360008301526117ae81611772565b9050919050565b7f4e6f20616363657373207265717565737420666f756e64000000000000000000600082015250565b60006117eb6017836116a6565b91506117f6826117b5565b602082019050919050565b6000602082019050818103600083015261181a816117de565b9050919050565b7f41636365737320616c72656164792072656a6563746564000000000000000000600082015250565b60006118576017836116a6565b915061186282611821565b602082019050919050565b600060208201905081810360008301526118868161184a565b9050919050565b7f4163636573732064656e69656400000000000000000000000000000000000000600082015250565b60006118c3600d836116a6565b91506118ce8261188d565b602082019050919050565b600060208201905081810360008301526118f2816118b6565b9050919050565b7f4e487b7100000000000000000000000000000000000000000000000000000000600052602260045260246000fd5b6000600282049050600182168061194057607f821691505b602082108103611953576119526118f9565b5b50919050565b7f41636365737320616c7265616479206772616e74656400000000000000000000600082015250565b600061198f6016836116a6565b915061199a82611959565b602082019050919050565b600060208201905081810360008301526119be81611982565b9050919050565b7f416363657373206e6f74206772616e7465640000000000000000000000000000600082015250565b60006119fb6012836116a6565b9150611a06826119c5565b602082019050919050565b60006020820190508181036000830152611a2a816119ee565b9050919050565b60008190508160005260206000209050919050565b60006020601f8301049050919050565b600082821b905092915050565b600060088302611a937fffffffffffffffffffffffffffffffffffffffffffffffffffffffffffffffff82611a56565b611a9d8683611a56565b95508019841693508086168417925050509392505050565b6000819050919050565b6000611ada611ad5611ad08461127e565b611ab5565b61127e565b9050919050565b6000819050919050565b611af483611abf565b611b08611b0082611ae1565b848454611a63565b825550505050565b600090565b611b1d611b10565b611b28818484611aeb565b505050565b5b81811015611b4c57611b41600082611b15565b600181019050611b2e565b5050565b601f821115611b9157611b6281611a31565b611b6b84611a46565b81016020851015611b7a578190505b611b8e611b8685611a46565b830182611b2d565b50505b505050565b600082821c905092915050565b6000611bb460001984600802611b96565b1980831691505092915050565b6000611bcd8383611ba3565b9150826002028217905092915050565b611be6826111ee565b67ffffffffffffffff811115611bff57611bfe611452565b5b611c098254611928565b611c14828285611b50565b600060209050601f831160018114611c475760008415611c35578287015190505b611c3f8582611bc1565b865550611ca7565b601f198416611c5586611a31565b60005b82811015611c7d57848901518255600182019150602085019450602081019050611c58565b86831015611c9a5784890151611c96601f891682611ba3565b8355505b6001600288020188555050505b505050505050565b6000611cba826111ee565b611cc481856116a6565b9350611cd481856020860161120a565b611cdd81611234565b840191505092915050565b611cf18161127e565b82525050565b60006040820190508181036000830152611d118185611caf565b9050611d206020830184611ce8565b939250505056fea264697066735822122080603eb9680410d082d7f99f23dab9ef78142f3658d67b6da4abae3f09627b0164736f6c63430008130033",
  "immutableReferences": {},
  "source": "// SPDX-License-Identifier: MIT\r\npragma solidity ^0.8.19;\r\n\r\ncontract MedicalRecords {\r\n    struct File {\r\n        string fileHash;\r\n        uint256 timestamp;\r\n    }\r\n\r\n    struct AccessRequest {\r\n        address doctor;\r\n        bool approved;\r\n        bool exists;\r\n    }\r\n\r\n    mapping(address => File[]) private patientFiles;\r\n    mapping(address => mapping(address => AccessRequest)) public accessRequests;\r\n    mapping(address => address[]) private approvedDoctors;\r\n\r\n    event FileUploaded(address indexed patient, string fileHash, uint256 timestamp);\r\n    event AccessRequested(address indexed doctor, address indexed patient);\r\n    event AccessApproved(address indexed patient, address indexed doctor);\r\n    event AccessRevoked(address indexed patient, address indexed doctor);\r\n    event AccessRejected(address indexed patient, address indexed doctor);\r\n\r\n    // Patient uploads a medical file\r\n    function uploadFile(string memory _fileHash) public {\r\n        patientFiles[msg.sender].push(File(_fileHash, block.timestamp));\r\n        emit FileUploaded(msg.sender, _fileHash, block.timestamp);\r\n    }\r\n\r\n    // Doctor requests access to a patient's records\r\n    function requestAccess(address _patient) public {\r\n        require(_patient != msg.sender, \"You cannot request access to your own records\");\r\n        require(!accessRequests[_patient][msg.sender].exists, \"Request already exists\");\r\n\r\n        accessRequests[_patient][msg.sender] = AccessRequest(msg.sender, false, true);\r\n        emit AccessRequested(msg.sender, _patient);\r\n    }\r\n\r\n    // Patient approves a doctor's request\r\n    function approveAccess(address _doctor) public {\r\n        require(accessRequests[msg.sender][_doctor].exists, \"No access request found\");\r\n        require(!accessRequests[msg.sender][_doctor].approved, \"Access already granted\");\r\n\r\n        accessRequests[msg.sender][_doctor].approved = true;\r\n        approvedDoctors[msg.sender].push(_doctor);\r\n        emit AccessApproved(msg.sender, _doctor);\r\n    }\r\n\r\n    // Patient rejects a doctor's request\r\n    function rejectAccess(address _doctor) public {\r\n        require(accessRequests[msg.sender][_doctor].exists, \"No access request found\");\r\n        require(!accessRequests[msg.sender][_doctor].approved, \"Access already rejected\");\r\n\r\n        delete accessRequests[msg.sender][_doctor];\r\n        emit AccessRejected(msg.sender, _doctor);\r\n    }\r\n\r\n    // Patient revokes access from a doctor\r\n    function revokeAccess(address _doctor) public {\r\n        require(accessRequests[msg.sender][_doctor].approved, \"Access not granted\");\r\n\r\n        accessRequests[msg.sender][_doctor].approved = false;\r\n        emit AccessRevoked(msg.sender, _doctor);\r\n    }\r\n\r\n    // Doctor retrieves the patient's files (if access is approved)\r\n    function getFiles(address _patient) public view returns (File[] memory) {\r\n        require(accessRequests[_patient][msg.sender].approved, \"Access denied\");\r\n        return patientFiles[_patient];\r\n    }\r\n\r\n    // Get all approved doctors for a patient\r\n    function getApprovedDoctors() public view returns (address[] memory) {\r\n        return approvedDoctors[msg.sender];\r\n    }\r\n\r\n    // Check if a doctor has requested access\r\n    function checkAccessRequest(address _doctor) public view returns (bool) {\r\n        return accessRequests[msg.sender][_doctor].exists;\r\n    }\r\n}\r\n",
  "sourcePath": "C:\\Users\\USER\\Desktop\\finalproject\\contracts\\MedicalRecords.sol",
  "compiler": {
    "name": "solc",
    "version": "0.8.19+commit.7dd6d404.Emscripten.clang"
  },
  "schemaVersion": "3.4.16",
  "updatedAt": "2025-02-14T08:38:41.397Z",
  "networkType": "ethereum",
  "devdoc": {
    "kind": "dev",
    "methods": {},
    "version": 1
  },
  "userdoc": {
    "kind": "user",
    "methods": {},
    "version": 1
  }
}